{
  "_format": "hh-sol-artifact-1",
  "contractName": "Lottery",
  "sourceName": "contracts/Lottery.sol",
  "abi": [
    {
      "inputs": [
        {
          "internalType": "address",
          "name": "_vrfCoordinator",
          "type": "address"
        },
        {
          "internalType": "address",
          "name": "_link",
          "type": "address"
        },
        {
          "internalType": "uint256",
          "name": "_fee",
          "type": "uint256"
        },
        {
          "internalType": "bytes32",
          "name": "_keyhash",
          "type": "bytes32"
        }
      ],
      "stateMutability": "nonpayable",
      "type": "constructor"
    },
    {
      "anonymous": false,
      "inputs": [
        {
          "indexed": true,
          "internalType": "address",
          "name": "previousOwner",
          "type": "address"
        },
        {
          "indexed": true,
          "internalType": "address",
          "name": "newOwner",
          "type": "address"
        }
      ],
      "name": "OwnershipTransferred",
      "type": "event"
    },
    {
      "anonymous": false,
      "inputs": [
        {
          "indexed": false,
          "internalType": "bytes32",
          "name": "requestId",
          "type": "bytes32"
        }
      ],
      "name": "RequestedRandomness",
      "type": "event"
    },
    {
      "inputs": [],
      "name": "endLottery",
      "outputs": [],
      "stateMutability": "nonpayable",
      "type": "function"
    },
    {
      "inputs": [],
      "name": "enter",
      "outputs": [],
      "stateMutability": "payable",
      "type": "function"
    },
    {
      "inputs": [],
      "name": "fee",
      "outputs": [
        {
          "internalType": "uint256",
          "name": "",
          "type": "uint256"
        }
      ],
      "stateMutability": "view",
      "type": "function"
    },
    {
      "inputs": [],
      "name": "getEntranceFee",
      "outputs": [
        {
          "internalType": "uint256",
          "name": "",
          "type": "uint256"
        }
      ],
      "stateMutability": "view",
      "type": "function"
    },
    {
      "inputs": [],
      "name": "keyhash",
      "outputs": [
        {
          "internalType": "bytes32",
          "name": "",
          "type": "bytes32"
        }
      ],
      "stateMutability": "view",
      "type": "function"
    },
    {
      "inputs": [],
      "name": "lottery_state",
      "outputs": [
        {
          "internalType": "enum Lottery.LOTTERY_STATE",
          "name": "",
          "type": "uint8"
        }
      ],
      "stateMutability": "view",
      "type": "function"
    },
    {
      "inputs": [],
      "name": "owner",
      "outputs": [
        {
          "internalType": "address",
          "name": "",
          "type": "address"
        }
      ],
      "stateMutability": "view",
      "type": "function"
    },
    {
      "inputs": [
        {
          "internalType": "uint256",
          "name": "",
          "type": "uint256"
        }
      ],
      "name": "players",
      "outputs": [
        {
          "internalType": "address payable",
          "name": "",
          "type": "address"
        }
      ],
      "stateMutability": "view",
      "type": "function"
    },
    {
      "inputs": [],
      "name": "randomness",
      "outputs": [
        {
          "internalType": "uint256",
          "name": "",
          "type": "uint256"
        }
      ],
      "stateMutability": "view",
      "type": "function"
    },
    {
      "inputs": [
        {
          "internalType": "bytes32",
          "name": "requestId",
          "type": "bytes32"
        },
        {
          "internalType": "uint256",
          "name": "randomness",
          "type": "uint256"
        }
      ],
      "name": "rawFulfillRandomness",
      "outputs": [],
      "stateMutability": "nonpayable",
      "type": "function"
    },
    {
      "inputs": [],
      "name": "recentWinner",
      "outputs": [
        {
          "internalType": "address payable",
          "name": "",
          "type": "address"
        }
      ],
      "stateMutability": "view",
      "type": "function"
    },
    {
      "inputs": [],
      "name": "renounceOwnership",
      "outputs": [],
      "stateMutability": "nonpayable",
      "type": "function"
    },
    {
      "inputs": [],
      "name": "requestId",
      "outputs": [
        {
          "internalType": "bytes32",
          "name": "",
          "type": "bytes32"
        }
      ],
      "stateMutability": "view",
      "type": "function"
    },
    {
      "inputs": [],
      "name": "startLottery",
      "outputs": [],
      "stateMutability": "nonpayable",
      "type": "function"
    },
    {
      "inputs": [
        {
          "internalType": "address",
          "name": "newOwner",
          "type": "address"
        }
      ],
      "name": "transferOwnership",
      "outputs": [],
      "stateMutability": "nonpayable",
      "type": "function"
    },
    {
      "inputs": [],
      "name": "usdEntryFee",
      "outputs": [
        {
          "internalType": "uint256",
          "name": "",
          "type": "uint256"
        }
      ],
      "stateMutability": "view",
      "type": "function"
    }
  ],
  "bytecode": "0x60c06040523480156200001157600080fd5b5060405162001f7538038062001f758339818101604052810190620000379190620002ab565b83838173ffffffffffffffffffffffffffffffffffffffff1660a08173ffffffffffffffffffffffffffffffffffffffff1660601b815250508073ffffffffffffffffffffffffffffffffffffffff1660808173ffffffffffffffffffffffffffffffffffffffff1660601b815250505050620000c9620000bd6200019860201b60201c565b620001a060201b60201c565b6802b5e3af16b1880000600481905550730715a7794a1dc8e42615f059dd6e406a6594651a600560006101000a81548173ffffffffffffffffffffffffffffffffffffffff021916908373ffffffffffffffffffffffffffffffffffffffff1602179055506001600a60006101000a81548160ff021916908360028111156200017b577f4e487b7100000000000000000000000000000000000000000000000000000000600052602160045260246000fd5b0217905550816007819055508060088190555050505050620003ad565b600033905090565b6000600160009054906101000a900473ffffffffffffffffffffffffffffffffffffffff16905081600160006101000a81548173ffffffffffffffffffffffffffffffffffffffff021916908373ffffffffffffffffffffffffffffffffffffffff1602179055508173ffffffffffffffffffffffffffffffffffffffff168173ffffffffffffffffffffffffffffffffffffffff167f8be0079c531659141344cd1fd0a4f28419497f9722a3daafe3b4186f6b6457e060405160405180910390a35050565b60008151905062000277816200035f565b92915050565b6000815190506200028e8162000379565b92915050565b600081519050620002a58162000393565b92915050565b60008060008060808587031215620002c257600080fd5b6000620002d28782880162000266565b9450506020620002e58782880162000266565b9350506040620002f88782880162000294565b92505060606200030b878288016200027d565b91505092959194509250565b6000620003248262000335565b9050919050565b6000819050919050565b600073ffffffffffffffffffffffffffffffffffffffff82169050919050565b6000819050919050565b6200036a8162000317565b81146200037657600080fd5b50565b62000384816200032b565b81146200039057600080fd5b50565b6200039e8162000355565b8114620003aa57600080fd5b50565b60805160601c60a05160601c611b95620003e0600039600081816107f60152610b5001526000610b140152611b956000f3fe6080604052600436106100f25760003560e01c8063814479991161008a578063ddca3f4311610059578063ddca3f43146102bd578063e97dcb62146102e8578063f2fde38b146102f2578063f71d96cb1461031b576100f2565b8063814479991461021357806388ab139a1461023e5780638da5cb5b1461026957806394985ddd14610294576100f2565b806336013189116100c6578063360131891461017b5780634f8c70cf146101a657806369ebe78e146101d1578063715018a6146101fc576100f2565b80626d6cae146100f757806309bc33a7146101225780631593a8c71461014d578063160344e214610164575b600080fd5b34801561010357600080fd5b5061010c610358565b6040516101199190611655565b60405180910390f35b34801561012e57600080fd5b5061013761035e565b60405161014491906117d9565b60405180910390f35b34801561015957600080fd5b5061016261044a565b005b34801561017057600080fd5b50610179610566565b005b34801561018757600080fd5b506101906106f7565b60405161019d91906117d9565b60405180910390f35b3480156101b257600080fd5b506101bb6106fd565b6040516101c891906115fc565b60405180910390f35b3480156101dd57600080fd5b506101e6610723565b6040516101f39190611655565b60405180910390f35b34801561020857600080fd5b50610211610729565b005b34801561021f57600080fd5b506102286107b1565b60405161023591906116de565b60405180910390f35b34801561024a57600080fd5b506102536107c4565b60405161026091906117d9565b60405180910390f35b34801561027557600080fd5b5061027e6107ca565b60405161028b91906115e1565b60405180910390f35b3480156102a057600080fd5b506102bb60048036038101906102b69190611241565b6107f4565b005b3480156102c957600080fd5b506102d2610890565b6040516102df91906117d9565b60405180910390f35b6102f0610896565b005b3480156102fe57600080fd5b50610319600480360381019061031491906111ef565b6109d1565b005b34801561032757600080fd5b50610342600480360381019061033d919061127d565b610ac9565b60405161034f91906115fc565b60405180910390f35b60095481565b600080600560009054906101000a900473ffffffffffffffffffffffffffffffffffffffff1673ffffffffffffffffffffffffffffffffffffffff1663feaf968c6040518163ffffffff1660e01b815260040160a06040518083038186803b1580156103c957600080fd5b505afa1580156103dd573d6000803e3d6000fd5b505050506040513d601f19601f8201168201806040525081019061040191906112a6565b50505091505060006402540be4008261041a91906118a8565b9050600081670de0b6b3a764000060045461043591906118a8565b61043f9190611877565b905080935050505090565b610452610b08565b73ffffffffffffffffffffffffffffffffffffffff166104706107ca565b73ffffffffffffffffffffffffffffffffffffffff16146104c6576040517f08c379a00000000000000000000000000000000000000000000000000000000081526004016104bd90611759565b60405180910390fd5b6002600a60006101000a81548160ff02191690836002811115610512577f4e487b7100000000000000000000000000000000000000000000000000000000600052602160045260246000fd5b0217905550610525600854600754610b10565b6009819055507fe5f5b44d72d4143c278eb745c4acc0695c4a5bc616be5beecf46abe29661780e60095460405161055c9190611655565b60405180910390a1565b61056e610b08565b73ffffffffffffffffffffffffffffffffffffffff1661058c6107ca565b73ffffffffffffffffffffffffffffffffffffffff16146105e2576040517f08c379a00000000000000000000000000000000000000000000000000000000081526004016105d990611759565b60405180910390fd5b6001600281111561061c577f4e487b7100000000000000000000000000000000000000000000000000000000600052602160045260246000fd5b600a60009054906101000a900460ff166002811115610664577f4e487b7100000000000000000000000000000000000000000000000000000000600052602160045260246000fd5b146106a4576040517f08c379a000000000000000000000000000000000000000000000000000000000815260040161069b906117b9565b60405180910390fd5b6000600a60006101000a81548160ff021916908360028111156106f0577f4e487b7100000000000000000000000000000000000000000000000000000000600052602160045260246000fd5b0217905550565b60065481565b600360009054906101000a900473ffffffffffffffffffffffffffffffffffffffff1681565b60085481565b610731610b08565b73ffffffffffffffffffffffffffffffffffffffff1661074f6107ca565b73ffffffffffffffffffffffffffffffffffffffff16146107a5576040517f08c379a000000000000000000000000000000000000000000000000000000000815260040161079c90611759565b60405180910390fd5b6107af6000610c6f565b565b600a60009054906101000a900460ff1681565b60045481565b6000600160009054906101000a900473ffffffffffffffffffffffffffffffffffffffff16905090565b7f000000000000000000000000000000000000000000000000000000000000000073ffffffffffffffffffffffffffffffffffffffff163373ffffffffffffffffffffffffffffffffffffffff1614610882576040517f08c379a000000000000000000000000000000000000000000000000000000000815260040161087990611799565b60405180910390fd5b61088c8282610d35565b5050565b60075481565b600060028111156108d0577f4e487b7100000000000000000000000000000000000000000000000000000000600052602160045260246000fd5b600a60009054906101000a900460ff166002811115610918577f4e487b7100000000000000000000000000000000000000000000000000000000600052602160045260246000fd5b1461092257600080fd5b61092a61035e565b34101561096c576040517f08c379a000000000000000000000000000000000000000000000000000000000815260040161096390611739565b60405180910390fd5b6002339080600181540180825580915050600190039060005260206000200160009091909190916101000a81548173ffffffffffffffffffffffffffffffffffffffff021916908373ffffffffffffffffffffffffffffffffffffffff160217905550565b6109d9610b08565b73ffffffffffffffffffffffffffffffffffffffff166109f76107ca565b73ffffffffffffffffffffffffffffffffffffffff1614610a4d576040517f08c379a0000000000000000000000000000000000000000000000000000000008152600401610a4490611759565b60405180910390fd5b600073ffffffffffffffffffffffffffffffffffffffff168173ffffffffffffffffffffffffffffffffffffffff161415610abd576040517f08c379a0000000000000000000000000000000000000000000000000000000008152600401610ab4906116f9565b60405180910390fd5b610ac681610c6f565b50565b60028181548110610ad957600080fd5b906000526020600020016000915054906101000a900473ffffffffffffffffffffffffffffffffffffffff1681565b600033905090565b60007f000000000000000000000000000000000000000000000000000000000000000073ffffffffffffffffffffffffffffffffffffffff16634000aea07f000000000000000000000000000000000000000000000000000000000000000084866000604051602001610b84929190611670565b6040516020818303038152906040526040518463ffffffff1660e01b8152600401610bb193929190611617565b602060405180830381600087803b158015610bcb57600080fd5b505af1158015610bdf573d6000803e3d6000fd5b505050506040513d601f19601f82011682018060405250810190610c039190611218565b506000610c258460003060008089815260200190815260200160002054611046565b9050600160008086815260200190815260200160002054610c469190611821565b60008086815260200190815260200160002081905550610c668482611082565b91505092915050565b6000600160009054906101000a900473ffffffffffffffffffffffffffffffffffffffff16905081600160006101000a81548173ffffffffffffffffffffffffffffffffffffffff021916908373ffffffffffffffffffffffffffffffffffffffff1602179055508173ffffffffffffffffffffffffffffffffffffffff168173ffffffffffffffffffffffffffffffffffffffff167f8be0079c531659141344cd1fd0a4f28419497f9722a3daafe3b4186f6b6457e060405160405180910390a35050565b600280811115610d6e577f4e487b7100000000000000000000000000000000000000000000000000000000600052602160045260246000fd5b600a60009054906101000a900460ff166002811115610db6577f4e487b7100000000000000000000000000000000000000000000000000000000600052602160045260246000fd5b14610df6576040517f08c379a0000000000000000000000000000000000000000000000000000000008152600401610ded90611719565b60405180910390fd5b60008111610e39576040517f08c379a0000000000000000000000000000000000000000000000000000000008152600401610e3090611779565b60405180910390fd5b600060028054905082610e4c91906119f2565b905060028181548110610e88577f4e487b7100000000000000000000000000000000000000000000000000000000600052603260045260246000fd5b9060005260206000200160009054906101000a900473ffffffffffffffffffffffffffffffffffffffff16600360006101000a81548173ffffffffffffffffffffffffffffffffffffffff021916908373ffffffffffffffffffffffffffffffffffffffff160217905550600360009054906101000a900473ffffffffffffffffffffffffffffffffffffffff1673ffffffffffffffffffffffffffffffffffffffff166108fc479081150290604051600060405180830381858888f19350505050158015610f5b573d6000803e3d6000fd5b50600067ffffffffffffffff811115610f9d577f4e487b7100000000000000000000000000000000000000000000000000000000600052604160045260246000fd5b604051908082528060200260200182016040528015610fcb5781602001602082028036833780820191505090505b5060029080519060200190610fe19291906110b5565b506001600a60006101000a81548160ff0219169083600281111561102e577f4e487b7100000000000000000000000000000000000000000000000000000000600052602160045260246000fd5b02179055508160068190555082600981905550505050565b60008484848460405160200161105f9493929190611699565b6040516020818303038152906040528051906020012060001c9050949350505050565b600082826040516020016110979291906115b5565b60405160208183030381529060405280519060200120905092915050565b82805482825590600052602060002090810192821561112e579160200282015b8281111561112d5782518260006101000a81548173ffffffffffffffffffffffffffffffffffffffff021916908373ffffffffffffffffffffffffffffffffffffffff160217905550916020019190600101906110d5565b5b50905061113b919061113f565b5090565b5b80821115611158576000816000905550600101611140565b5090565b60008135905061116b81611ad5565b92915050565b60008151905061118081611aec565b92915050565b60008135905061119581611b03565b92915050565b6000815190506111aa81611b1a565b92915050565b6000813590506111bf81611b31565b92915050565b6000815190506111d481611b31565b92915050565b6000815190506111e981611b48565b92915050565b60006020828403121561120157600080fd5b600061120f8482850161115c565b91505092915050565b60006020828403121561122a57600080fd5b600061123884828501611171565b91505092915050565b6000806040838503121561125457600080fd5b600061126285828601611186565b9250506020611273858286016111b0565b9150509250929050565b60006020828403121561128f57600080fd5b600061129d848285016111b0565b91505092915050565b600080600080600060a086880312156112be57600080fd5b60006112cc888289016111da565b95505060206112dd8882890161119b565b94505060406112ee888289016111c5565b93505060606112ff888289016111c5565b9250506080611310888289016111da565b9150509295509295909350565b61132681611914565b82525050565b61133581611902565b82525050565b61134481611932565b82525050565b61135b61135682611932565b6119de565b82525050565b600061136c826117f4565b61137681856117ff565b93506113868185602086016119ab565b61138f81611ab0565b840191505092915050565b6113a381611999565b82525050565b60006113b6602683611810565b91507f4f776e61626c653a206e6577206f776e657220697320746865207a65726f206160008301527f64647265737300000000000000000000000000000000000000000000000000006020830152604082019050919050565b600061141c601483611810565b91507f596f75206172656e2774207468657265207965740000000000000000000000006000830152602082019050919050565b600061145c600e83611810565b91507f4e6f7420656e6f756768204554480000000000000000000000000000000000006000830152602082019050919050565b600061149c602083611810565b91507f4f776e61626c653a2063616c6c6572206973206e6f7420746865206f776e65726000830152602082019050919050565b60006114dc601083611810565b91507f72616e646f6d206e6f7420666f756e64000000000000000000000000000000006000830152602082019050919050565b600061151c601f83611810565b91507f4f6e6c7920565246436f6f7264696e61746f722063616e2066756c66696c6c006000830152602082019050919050565b600061155c601d83611810565b91507f43616e27742073746172742061206e6577206c6f7474657279207965740000006000830152602082019050919050565b61159881611979565b82525050565b6115af6115aa82611979565b6119e8565b82525050565b60006115c1828561134a565b6020820191506115d1828461159e565b6020820191508190509392505050565b60006020820190506115f6600083018461132c565b92915050565b6000602082019050611611600083018461131d565b92915050565b600060608201905061162c600083018661132c565b611639602083018561158f565b818103604083015261164b8184611361565b9050949350505050565b600060208201905061166a600083018461133b565b92915050565b6000604082019050611685600083018561133b565b611692602083018461158f565b9392505050565b60006080820190506116ae600083018761133b565b6116bb602083018661158f565b6116c8604083018561132c565b6116d5606083018461158f565b95945050505050565b60006020820190506116f3600083018461139a565b92915050565b60006020820190508181036000830152611712816113a9565b9050919050565b600060208201905081810360008301526117328161140f565b9050919050565b600060208201905081810360008301526117528161144f565b9050919050565b600060208201905081810360008301526117728161148f565b9050919050565b60006020820190508181036000830152611792816114cf565b9050919050565b600060208201905081810360008301526117b28161150f565b9050919050565b600060208201905081810360008301526117d28161154f565b9050919050565b60006020820190506117ee600083018461158f565b92915050565b600081519050919050565b600082825260208201905092915050565b600082825260208201905092915050565b600061182c82611979565b915061183783611979565b9250827fffffffffffffffffffffffffffffffffffffffffffffffffffffffffffffffff0382111561186c5761186b611a23565b5b828201905092915050565b600061188282611979565b915061188d83611979565b92508261189d5761189c611a52565b5b828204905092915050565b60006118b382611979565b91506118be83611979565b9250817fffffffffffffffffffffffffffffffffffffffffffffffffffffffffffffffff04831182151516156118f7576118f6611a23565b5b828202905092915050565b600061190d82611959565b9050919050565b600061191f82611959565b9050919050565b60008115159050919050565b6000819050919050565b600081905061194a82611ac1565b919050565b6000819050919050565b600073ffffffffffffffffffffffffffffffffffffffff82169050919050565b6000819050919050565b600069ffffffffffffffffffff82169050919050565b60006119a48261193c565b9050919050565b60005b838110156119c95780820151818401526020810190506119ae565b838111156119d8576000848401525b50505050565b6000819050919050565b6000819050919050565b60006119fd82611979565b9150611a0883611979565b925082611a1857611a17611a52565b5b828206905092915050565b7f4e487b7100000000000000000000000000000000000000000000000000000000600052601160045260246000fd5b7f4e487b7100000000000000000000000000000000000000000000000000000000600052601260045260246000fd5b7f4e487b7100000000000000000000000000000000000000000000000000000000600052602160045260246000fd5b6000601f19601f8301169050919050565b60038110611ad257611ad1611a81565b5b50565b611ade81611902565b8114611ae957600080fd5b50565b611af581611926565b8114611b0057600080fd5b50565b611b0c81611932565b8114611b1757600080fd5b50565b611b238161194f565b8114611b2e57600080fd5b50565b611b3a81611979565b8114611b4557600080fd5b50565b611b5181611983565b8114611b5c57600080fd5b5056fea26469706673582212207ac686e0a63113d8207d40da43e62b07bd0d0c668f8ba8c99ea5d11ac56d291e64736f6c63430008000033",
  "linkReferences": {},
  "deployedLinkReferences": {}
}